:1000000045C0000053C0000051C000004FC00000B8
:100010004DC000004BC0000049C0000047C00000B8
:1000200045C0000043C0000041C000003FC00000C8
:100030003DC000003BC0000039C0000037C00000D8
:1000400035C0000033C0000031C000002FC00000E8
:100050002DC000002BC0000029C0000027C00000F8
:1000600025C0000023C0000021C000001FC0000008
:100070001DC000001BC0000019C0000017C0000018
:1000800015C0000013C0000011C0000011241FBEE5
:10009000CFEFD0E4DEBFCDBF21E0A0E0B1E001C0F2
:1000A0001D92A130B207E1F73CD045C0A9CF8091A5
:1000B00000018230A9F028F4882341F0813051F00A
:1000C00021C0833099F08430B9F01CC081E0809366
:1000D00000011EC0009B1CC082E0809300011BC079
:1000E000009919C083E08093000118C0009B16C0DE
:1000F00084E08093000109C0009907C081E08093EB
:10010000000106C010920001089581E085B90895AC
:1001100081E085B9089582E085B9089582E085B9C6
:10012000089511B88FEF82B984B915B815B8109237
:0A0130000001BDDFFECFF894FFCF01
:00000001FF
