:1000000045C0000060C000005EC000005CC0000091
:100010005AC0000058C0000056C0000054C0000084
:1000200052C0000050C000004EC000004CC0000094
:100030004AC0000048C0000046C0000044C00000A4
:1000400042C0000040C000003EC000003CC00000B4
:100050003AC0000038C0000036C0000034C00000C4
:1000600032C0000030C000002EC000002CC00000D4
:100070002AC0000028C0000026C0000024C00000E4
:1000800022C0000020C000001EC0000011241FBEBE
:10009000CFEFD0E4DEBFCDBF11E0A0E0B1E0E8EBF0
:1000A000F1E000E00BBF02C007900D92A830B1074D
:1000B000D9F721E0A8E0B1E001C01D92AA30B20753
:1000C000E1F76ED077C09CCF40B180910801282F16
:1000D00030E0F901E050FF4F9081491304C08F5F79
:1000E000809308010895882331F090B1F901E1501F
:1000F000FF4F8081981310920801089580910901A3
:10010000823099F028F4882341F0813051F03BC0CF
:100110008330E9F08430F9F036C081E08093090142
:1001200035C082E0809309010895809108018730ED
:1001300031F483E0809309011092080129C0C4DFE3
:1001400080910901813011F1833011F1089584E02B
:1001500080930901089502990AC0009908C0019985
:1001600006C0079B04C081E0809309010FC0029B79
:1001700016C0009914C0019912C0079910C082E0FE
:1001800080930901089510920901089515B8089502
:1001900085B1811103C081E085B9089515B808952E
:1001A00011B88FEF82B984B915B815B8109209014A
:0801B000A5DFFECFF894FFCF9C
:0801B800040001000200010037
:00000001FF
